:020000040800F2
:1000000060070020010E0008110500081305000814
:10001000170500081B0500081F0500080000000068
:1000200000000000000000000000000023050008A0
:100030002505000800000000270500082905000824
:100040001B0E00081B0E00081B0E00081B0E0008EC
:100050001B0E00081B0E00081B0E00081B0E0008DC
:100060001B0E00081B0E00081B0E00081B0E0008CC
:100070001B0E00081B0E00081B0E00081B0E0008BC
:100080001B0E00081B0E00081B0E00081B0E0008AC
:100090001B0E00081B0E00081B0E00081B0E00089C
:1000A0001B0E00081B0E00081B0E00081B0E00088C
:1000B0001B0E00081B0E00081B0E00081B0E00087C
:1000C0001B0E00081B0E00081B0E00081B0E00086C
:1000D0001B0E0008750D00081B0E00081B0E000803
:1000E0001B0E00081B0E00081B0E00081B0E00084C
:1000F0001B0E00081B0E00081B0E00081B0E00083C
:100100001B0E00081B0E00081B0E00081B0E00082B
:100110001B0E00081B0E00081B0E00081B0E00081B
:100120001B0E00081B0E00081B0E00081B0E00080B
:1001300000F002F800F042F80AA090E8000C8244B7
:100140008344AAF10107DA4501D100F037F8AFF294
:10015000090EBAE80F0013F0010F18BFFB1A43F0A5
:10016000010318471020000030200000103A24BF7F
:1001700078C878C1FAD8520724BF30C830C144BF0C
:1001800004680C607047000000230024002500264E
:10019000103A28BF78C1FBD8520728BF30C148BFEA
:1001A0000B607047642901F0F985782901F03286E7
:1001B000002070471FB51FBD10B510BD01F07EFFB8
:1001C0001146FFF7F7FF00F009F801F09CFF03B4B8
:1001D000FFF7F2FF03BC00F073FD0000F8B500F07C
:1001E00005FD4FF4A06001F0AFFB4FF4165000F096
:1001F00075FD00F08BFA00F09FFA00F064FB02E05E
:100200004CA001F097FD00F0E6FB0028F8D152A0C9
:1002100001F090FD1DE059A001F08CFD4FF4FA7043
:1002200000F021FD002000F097FA0446012C06D1D1
:1002300000255B4908605BA001F07CFD0AE0022C10
:1002400007D1012501205649086060A001F072FD28
:1002500000E0E0E700BF002D2DD100F059FC65A0C3
:1002600001F068FD26E06AA001F064FD4FF4FA7029
:1002700000F0F9FC684600F02EFCC0B900204849A7
:10028000086001206D49C1F8AC016DA001F052FD7C
:10029000002609E01DF806106FA001F04BFD4FF499
:1002A000FA7000F0E0FC761C032E03DCF2E700207D
:1002B0003B490860D7E7012D39D16EA001F03AFD26
:1002C00000F04DFC32E072A00068009071A001F0D7
:1002D00031FDC82000F0C7FC684600F0C9FB0746A6
:1002E000394675A001F026FD7AA001F023FD202FEC
:1002F00018D100202A49086001205049C1F8AC01FA
:10030000002609E01DF8061074A001F013FD4FF45B
:10031000487000F0A8FC761C032EF3DD76A001F0F7
:1003200009FD02E000201E49086000BFCBE7002065
:10033000F8BD00004E524632344C303120737461A7
:10034000747565206572726F72202E2E2E2E2E2EE1
:100350002E2E2E2E0A0000004E524632344C3031E2
:100360002073746174756520737563636573732E90
:100370002E2E2E2E2E2E2E2E2E2E0A005761697412
:10038000696E67207573657220736C656374206D88
:100390006F64652E2E2E2E2E2E2E2E2E0A0000007D
:1003A000A00121424E524632344C303120776173E5
:1003B00020736C65637465642052582D4D4F44451D
:1003C0002E2E2E2E2E2E2E2E0A0000004E5246329B
:1003D000344C30312077617320736C6563746564CD
:1003E0002054582D4D4F44452E2E2E2E2E2E2E0AA3
:1003F00000000000456E7465722052582066756ECC
:100400006374696F6E2E2E2E2E2E2E2E2E0A000055
:100410005761697474696E672072656376656420DC
:1004200062792054582D4D4F44452D4E524632345A
:100430004C30312E2E2E2E2E2E2E0A000000214260
:1004400072656376206973207375636365737320C7
:1004500021212121210A00007265637620746D70CC
:100460005F6275662076616C756520697320253042
:1004700032780A00456E7465722054582066756E95
:100480006374696F6E2E2E2E2E2E2E2E2E0A0000D5
:10049000000102035761697474696E6720757365A2
:1004A000722073656E6420646174612E2E2E2E2E70
:1004B0002E2E2E2E2E0A000054582072657475724E
:1004C0006E2076616C756520697320257832300A5C
:1004D000000000003132330A0000000073656E64D2
:1004E00020737563636573732076616C7565202571
:1004F0007832300A00000000446174612077617333
:100500002073656E6465642E2E2E2E2E2E2E0A000C
:10051000704700BFFEE700BFFEE700BFFEE700BF79
:10052000FEE7704770477047704700000CB5002029
:10053000019000906C48006840F480306A4908607F
:1005400000BF6948006800F4003000900198401C2A
:100550000190009818B90198B0F5A06FF1D16248E8
:10056000006800F4003010B10120009001E000208C
:1005700000900098012843D15C48006840F01000CA
:100580005A4908600846006820F0030008600846E1
:10059000006840F0020008605348406852494860D3
:1005A0000846406848600846406840F480604860FB
:1005B0000846406820F47C1048600846406840F4D3
:1005C000E81048600846006840F08070086000BF8E
:1005D0004548006800F000700028F9D042484068A3
:1005E00020F00300404948600846406840F002009F
:1005F000486000BF3C48406800F00C000828F9D172
:100600000CBD10B5FFF792FF10BD10B5364800685D
:1006100040F0010034490860084640683449084009
:100620003149486008460068324908402E49086050
:100630000846006820F4802008600846406820F4DE
:10064000FE0048604FF41F008860FFF7DAFF4FF0AC
:1006500000602949086010BD10B50021002000226B
:10066000214B5B6803F00C0121B1042906D0082955
:1006700028D107E0214B224C236027E01F4B204C60
:10068000236023E0184B5B6803F47010164B5B6823
:1006900003F48032022303EB904022B9194B434309
:1006A000174C23600DE0104B5B6803F4003323B15B
:1006B000144B4343124C236003E0104B4343104C54
:1006C000236003E00D4B0E4C236000BF00BF064BC0
:1006D0005B68C3F303130C4CE15C094B1B68CB4014
:1006E000074C236010BD00000010024000200240B3
:1006F0000000FFF8FFFFF6FE08ED00E000127A00B0
:100700000000002000093D000400002008B5012180
:10071000042000F0B1FE4FF41060ADF8000010208E
:100720008DF8030003208DF802006946014800F0AF
:10073000E7FB08BD0008014008B50121082000F0D2
:100740009BFEA020ADF8000048208DF8030069460C
:100750001D4800F0D5FB08BD10B5044614B10120BA
:100760001A49087019480078E8B18021164800F04D
:100770005AFC20B12021144800F055FC98B90A20F9
:1007800000F071FA00201149087080210E4800F035
:100790004AFC08B9012010BD20210B4800F043FCA1
:1007A00078B90220F7E78021074800F03CFC0128D7
:1007B00007D12021044800F036FC012801D103496B
:1007C00008700020E7E70000000C01401400002042
:1007D00010B50446164800884FF6C7710840144902
:1007E000088008460088204308800121104801F055
:1007F000E4F910BD10B5044603E021460C4801F0B1
:100800000DFA02210A4801F05CFA0028F5D009A08F
:1008100001F090FA04E0064801F002FAC0B210BDFF
:100820000121034801F04DFA0028F4D000BFF6E79B
:1008300000380040313131313131313131313131F4
:1008400031200A0000B587B00121880300F014FEB2
:100850000121082000F010FE4FF46040ADF81800B0
:1008600018208DF81B0003208DF81A0006A9D24825
:1008700000F046FB0020ADF804004FF48270ADF8A4
:1008800006000020ADF808000220ADF80A000120A3
:10089000ADF80C004002ADF80E003820ADF81000A5
:1008A0000020ADF812000720ADF8140001A9C348DC
:1008B00001F0DEF80121C14801F07FF9FF20FFF7C8
:1008C00099FF07B000BD00B587B00121042000F0FA
:1008D000D3FD4FF41040ADF8180010208DF81B0028
:1008E00003208DF81A004FF48070ADF818004820EE
:1008F0008DF81B0003208DF81A0006A9B04800F0FF
:10090000FFFAFFF79FFF0021AC4801F056F90020E5
:10091000ADF804004FF48270ADF806000020ADF889
:100920000800ADF80A00ADF80C004FF40070ADF807
:100930000E001820ADF810000020ADF812000720BE
:10094000ADF8140001A99D4801F092F801219B48DF
:1009500001F033F901209B49086000209A49C1F851
:10096000B00107B000BD2DE9F04107460D4616461F
:100970000020944908603846FFF73CFF8046002479
:1009800005E0FF20FFF736FF2855601CC4B2B442D3
:10099000F7DB01208B4908604046BDE8F0812DE976
:1009A000F04107460C461546002086490860384647
:1009B000FFF720FF8046002605E014F8010BFFF743
:1009C00019FF701CC6B2AE42F7DB01207D490860FA
:1009D0004046BDE8F0811CB57CA103C9CDE900010A
:1009E0001820FFF7F5FE052269463020FFF7D7FFF4
:1009F000052269461020FFF7B6FF00240AE02146D1
:100A000074A001F097F91DF80400052800D003E058
:100A1000601CC4B2052CF2DB00BF052C01D0012004
:100A20001CBD0020FCE770B505460C46002065495A
:100A300008602846FFF7DEFE06462046FFF7DAFE8E
:100A400001206149C1F8BC01304670BD70B5044653
:100A500000205C4908602046FFF7CCFEFF20FFF72E
:100A6000C9FE054601205849C1F8BC01284670BDA1
:100A700070B505461020FFF7ABFE002051490C3938
:100A800008600A2000F0EFF820222946A020FFF796
:100A900086FF01204C49C1F8B00100BF49489C388D
:100AA00000680028FAD10720FFF7D0FF044621464E
:100AB0002720FFF7B8FF04F0100028B1FF21E12044
:100AC000FFF7B1FF102070BD04F0200008B1202016
:100AD000F9E7FF20F7E770B504461020FFF778FE2E
:100AE0000720FFF7B3FF054629462720FFF79BFFA6
:100AF00005F0400050B1202221466120FFF733FF6E
:100B0000FF21E220FFF78FFF002070BD0120FCE7EE
:100B100010B500202B490C390860052231492A20E4
:100B2000FFF73DFF01212120FFF77DFF012122205A
:100B3000FFF779FF28212520FFF775FF20213120BD
:100B4000FFF771FF0F212620FFF76DFF0F212020F7
:100B5000FFF769FF01201C49C1F8B00110BD10B5B5
:100B6000002018490C39086005221F493020FFF782
:100B700016FF05221B492A20FFF711FF0121212022
:100B8000FFF751FF01212220FFF74DFF1A212420FA
:100B9000FFF749FF28212520FFF745FF0F212620D9
:100BA000FFF741FF0E212020FFF73DFF01200649FE
:100BB000C1F8B00110BD0000000C01400038004039
:100BC00000080140BC012142000021420505050545
:100BD00005000000692076616C7565206973202529
:100BE000640A0000332100082E21000810B56FF0C0
:100BF000040000F0F8FE2E4800682E49B0FBF1F02A
:100C00002D4908700846007800EB4001C1EBC01088
:100C10004FF6FF7101EAC0002849088010BD014667
:100C2000254A12784A434FF0E0235A6100229A6124
:100C30001A46126942F001021A6100BF4FF0E02229
:100C4000106900F001021AB100F48032002AF5D0D8
:100C50004FF0E022126922F001024FF0E0231A6106
:100C600000229A6170470146144A12884A434FF0A5
:100C7000E0235A6100229A611A46126942F0010289
:100C80001A6100BF4FF0E022106900F001021AB1B2
:100C900000F48032002AF5D04FF0E022126922F0F1
:100CA00001024FF0E0231A6100229A6170470000B0
:100CB0000000002000127A0016000020180000201A
:100CC00000BF704700BF4A4A128802F04002002A63
:100CD000F9D0C2B2464B1B1D1A80704710B586B0C2
:100CE0000446012144F2040000F0C6FB4FF40070FA
:100CF000ADF8140003208DF8160018208DF81700A9
:100D000005A93C4800F0FCF84FF48060ADF81400F1
:100D100004208DF8170005A9364800F0F1F82520C9
:100D20008DF8000003208DF801008DF802000120ED
:100D30008DF80300684600F00CFE01940020ADF829
:100D40000800ADF80A00ADF80C00ADF810000C205A
:100D5000ADF80E0001A9264800F035FC012240F252
:100D60002551234800F0C7FC0121214800F0B7FCC1
:100D700006B010BD10B540F225511D4800F0A0FD91
:100D800010B31B4800F01CFDC4B21B48008800F4DF
:100D90000040C8B91848008800F4804060B10A2CAF
:100DA00003D000201449088020E01348008840F454
:100DB00000401149088019E00D2C06D10E4800882A
:100DC00040F480400C49088010E00B480088C0F3D4
:100DD0000D000A490C5408480088401C0649088048
:100DE00008460088C72801DD0020088010BD0000EB
:100DF0000038014000080140200000203800002099
:100E00000948804709480047FEE7FEE7FEE7FEE79E
:100E1000FEE7FEE7FEE7FEE7FEE7FEE704480549DA
:100E2000054A064B704700000B0600083101000818
:100E300060010020600700206003002060030020A4
:100E400010B50446CC48844208D10121042000F0AA
:100E50002DFB0021042000F029FB46E0C748844216
:100E600008D10121082000F021FB0021082000F01A
:100E70001DFB3AE0C248844208D10121102000F055
:100E800015FB0021102000F011FB2EE0BD4884422C
:100E900008D10121202000F009FB0021202000F0D2
:100EA00005FB22E0B848844208D10121402000F02F
:100EB000FDFA0021402000F0F9FA16E0B348844220
:100EC00008D10121802000F0F1FA0021802000F0FB
:100ED000EDFA0AE0AE48844207D10121801500F006
:100EE000E5FA0021A01500F0E1FA10BD10B50121CE
:100EF000084600F0DBFA0021012000F0D7FA10BD0F
:100F00002DE9F041024600250026002000230024A0
:100F1000002791F803C00CF00F0591F803C00CF006
:100F2000100CBCF1000F03D091F802C04CEA05058B
:100F300091F800C0BCF1000F31D0146800202BE004
:100F40004FF0010C0CFA00F3B1F800C00CEA0306F4
:100F50009E4220D183004FF00F0C0CFA03F7BC43E4
:100F600005FA03FC4CEA040491F803C0BCF1280F15
:100F700006D14FF0010C0CFA00FCC2F814C00AE0D4
:100F800091F803C0BCF1480F05D14FF0010C0CFAE9
:100F900000FCC2F810C0401C0828D1D31460B1F87E
:100FA00000C0BCF1FF0F34DD546800202EE000F1DA
:100FB000080C4FF0010808FA0CF3B1F800C00CEA75
:100FC00003069E4221D183004FF00F0C0CFA03F769
:100FD000BC4305FA03FC4CEA040491F803C0BCF1DD
:100FE000280F05D100F1080C08FA0CF8C2F814809B
:100FF00091F803C0BCF1480F07D100F1080C4FF085
:10100000010808FA0CF8C2F81080401C0828CED35A
:101010005460BDE8F0814FF6FF71018002218170BC
:101020000421C17070470246002093680B400BB149
:10103000012000E0002070470146886880B27047B8
:1010400002460020D3680B400BB1012000E00020D5
:1010500070470146C86880B27047016170474161BE
:1010600070470AB1016100E041617047C16070479B
:101070004FF480320A4382618161826182698269B0
:10108000704702460020434B18684FF680731840A3
:1010900040EA021008433F4B186070473E49C86160
:1010A0007047F0B50A46002300240021002500F017
:1010B0000046B6F1004F02D1364EF16901E0354EDF
:1010C0007168C0F3034583B200F44016B6F5401FC3
:1010D00008D121F070612F4E766826F070662D4F92
:1010E0007E6012E000F48016B6F5801F06D103265C
:1010F00006FA05F4A14341F0706106E0460D3601A1
:1011000003FA06F6B14341F0706122B1460D360193
:1011100003FA06F6314300F00046B6F1004F02D163
:101120001C4EF16101E01B4E7160F0BD30B5002234
:101130008B071C0F0F2303FA04F2164B08338C1095
:1011400053F824309343134C08348D1044F8253061
:1011500023468C1053F824308C07240F00FA04F433
:1011600023430C4C08348D1044F8253030BD0A4917
:10117000DC3108607047000000080140000C0140AD
:10118000001001400014014000180140001C014003
:10119000002001400000014000002042DF480068BC
:1011A00040F00100DD49086008464068DC4908401D
:1011B000DA49486008460068DA490840D7490860BB
:1011C0000846006820F4802008600846406820F443
:1011D000FE0048604FF41F0088607047CF490968DF
:1011E00021F48031CD4A11601146096821F4802133
:1011F0001160B0F5803F03D0B0F5802F0ED106E02E
:10120000C649096841F48031C44A116007E0C34906
:10121000096841F4A021C14A116000E000BF00BF8D
:10122000704710B501460022002300204A11012A10
:1012300002D1BA4C236806E0022A02D1B74C236AD5
:1012400001E0B64C636A01F01F02012494401C4087
:101250000CB1012000E0002010BD38B50020009046
:101260000024002500BF3120FFF7DBFF0546009872
:10127000401C00900098B0F5A06F01D0002DF2D076
:101280003120FFF7CEFF08B1012400E00024204602
:1012900038BD01460020A14A106820F0F80040EA5D
:1012A000C10010607047A0490860704702460020E6
:1012B0009A4B586820F47C1042EA01031843974B7C
:1012C0005860704798490866704701460020934A65
:1012D000506820F003000843506070478F48406812
:1012E00000F00C007047014600208C4A506820F046
:1012F000F00008435060704701460020874A50685C
:1013000020F4E06008435060704701460020834AA3
:10131000506820F4605040EAC1005060704729B125
:101320007E4A527A02437D4B5A7204E07B4A527ADB
:1013300082437A4B5A7270477B49D83108607047B4
:1013400001460020754A506820F440400843506030
:1013500070470021714A20321170704A82F82010C3
:10136000012802D004280AD104E001216B4A20326E
:10137000117005E00521694A2032117000E000BFBC
:1013800000BF70476949086070476449096A0143B2
:10139000624A11627047654944390860704730B548
:1013A00000210022002400235C4D6D6805F00C0133
:1013B00021B1042905D0082923D105E05C4D056041
:1013C00022E05B4D05601FE0544D6D6805F470121E
:1013D000524D6D6805F48034022505EB92421CB92C
:1013E000544D554305600BE04C4D6D6805F40035D8
:1013F0001DB1504D5543056002E04D4D554305600C
:1014000002E04B4D056000BF00BF444D6D6805F024
:10141000F0010909484D6B5C0568DD4045603F4DB2
:101420006D6805F4E061090A434D6B5C4568DD4079
:1014300085603A4D6D6805F46051C90A3E4D6B5C9C
:101440004568DD40C560354D6D6805F44041890B48
:101450003A4D6B5CC568B5FBF3F5056130BD29B14C
:101460002E4A526902432D4B5A6104E02B4A5269BD
:1014700082432A4B5A61704729B1284A9269024334
:10148000264B9A6104E0254A92698243234B9A6174
:10149000704729B1214AD2690243204BDA6104E046
:1014A0001E4AD26982431D4BDA61704729B11B4A3B
:1014B000D2680243194BDA6004E0184AD2688243CA
:1014C000164BDA60704729B1144A12690243134B74
:1014D0001A6104E0114A12698243104B1A61704785
:1014E00012494039086070470F49C86470470B497A
:1014F000C87170470948406A40F0807007494862E7
:10150000704701460020054A92680A400AB101204E
:1015100000E00020704701498872704700100240C7
:101520000000FFF8FFFFF6FE000042428004424246
:1015300000127A0000093D00220000203200002045
:1015400010B50446FB48844209D101218803FFF706
:10155000ADFF00214FF48040FFF7A8FF32E0F648CE
:10156000844209D101214804FFF7ADFF00214FF467
:101570000030FFF7A8FF25E0F048844209D101219F
:101580008804FFF7A0FF00214FF48020FFF79BFFA6
:1015900018E0EB48844209D10121C804FFF793FF0A
:1015A00000214FF40020FFF78EFF0BE0E548844256
:1015B00008D101210805FFF786FF00214FF48010B4
:1015C000FFF781FF10BD2DE9F04786B005460E46B6
:1015D0000024A24600BFA1460027B08900B100BF89
:1015E0002F462C8A4CF6FF700440F08804432C826E
:1015F000AC894EF6F3100440B088318908437189F4
:1016000008430443AC81AC8A4FF6FF400440B089E4
:101610000443AC8201A8FFF7C2FEC648874202D14C
:10162000DDF810A001E0DDF80CA0A88900F400406E
:1016300040B10AEBCA0000EB0A1031684900B0FB68
:10164000F1F807E00AEBCA0000EB0A1031688900E4
:10165000B0FBF1F86420B8FBF0F00401200964212C
:1016600001FB1089A88900F4004040B1322000EB52
:10167000C900B0FBF1F000F00700044308E032209D
:1016800000EB09106421B0FBF1F000F00F000443FF
:101690002C8106B0BDE8F0874FF41651016000219F
:1016A0008180C18001810C214181002181817047AD
:1016B00010B502460020108A4FF2FF0318400B8835
:1016C0004C8823438C882343CC88234318431082BF
:1016D00010BD0021018041808180C180704721B10F
:1016E000828942F40052828104E082894DF6FF73C0
:1016F0001A4082817047F0B5034600240026002579
:10170000002040F66A17B94200D100BF1846C1F365
:10171000421401F01F06012707FA06F5012C01D13A
:101720000C3004E0022C01D1103000E014301AB16A
:1017300007682F43076002E00768AF430760F0BD0A
:101740001AB1838A0B43838202E0838A8B438382AC
:101750007047028A4FF6F0731A400282028A0A43E7
:101760000282704782894FF2FF731A408281828918
:101770000A438281704721B1828942F0020282814C
:1017800004E082894FF6FD731A4082817047028A15
:101790004FF6DF731A400282028A0A4302827047C0
:1017A00021B1028A42F48042028204E0028A4BF6AE
:1017B000FF731A4002827047C1F3080282807047AB
:1017C00001468888C0F308007047818941F0010113
:1017D00081817047028BD2B20283028B42EA0122DE
:1017E00002837047028B02F47F420283028B0A431A
:1017F0000283704721B1828A42F02002828204E093
:10180000828A4FF6DF731A408282704721B1828A42
:1018100042F01002828204E0828A4FF6EF731A408F
:101820008282704721B1828A42F00802828204E0FB
:10183000828A4FF6F7731A408282704721B18289FB
:1018400042F40042828103E08289C2F30E02828167
:10185000704721B1828A42F40062828204E0828A67
:101860004FF2FF731A4082827047828A4FF6FB73F1
:101870001A408282828A0A438282704721B1828A18
:1018800042F00202828204E0828A4FF6FD731A401F
:101890008282704702460020B1F5007F00D100BF70
:1018A00013880B400BB1012000E00020704701F4C9
:1018B0000072B2F5007F00D100BFCA4302807047BA
:1018C00070B50246002400230025002040F66A1669
:1018D000B14200D100BFC1F3421501F01F03012640
:1018E00006FA03F3012D02D19689334006E0022D5A
:1018F00002D1168A334001E0968A33400C12012649
:1019000006FA04F41688344013B10CB1012000E04B
:10191000002070BD10B50022002340F66A14A142D9
:1019200000D100BF0A1201249440A3B2DC4304801A
:1019300010BD000000380140004400400048004055
:10194000004C00400050004031490143314A1160D1
:10195000704770B5002100230F22C47804B32D4CCA
:10196000246804F4E064C4F5E064210AC1F10403CE
:10197000CA40447804FA03F18478144021430901F1
:10198000254C0678A155047804F01F050124AC40CD
:1019900005786D11AD0005F1E025C5F8004109E0BD
:1019A000047804F01F050124AC401C4D0678761124
:1019B00045F8264070BD1A4A0A400243154B1B1FCA
:1019C0001A60704739B1134A121D12680243114B55
:1019D0001B1D1A6006E00F4A121D126882430D4B50
:1019E0001B1D1A607047042808D14FF0E0210969D7
:1019F00041F004014FF0E022116107E04FF0E021D7
:101A0000096921F004014FF0E022116170470000E4
:101A10000000FA050CED00E000E400E080E100E0E9
:101A200080FFFF1F10B50446BE48844208D1012143
:101A30008014FFF73BFD0021A014FFF737FD16E0EF
:101A4000B948844208D101210014FFF73CFD002170
:101A50002014FFF738FD0AE0B448844207D1012181
:101A6000C013FFF730FD0021E013FFF72CFD10BD80
:101A700010B50022028802F441520B884C8823439F
:101A80008C882343CC8823430C8923434C892343EC
:101A90008C892343CC8923431A430280838B4FF2E2
:101AA000FF74234083830B8A038210BD2DE9F04F1E
:101AB00085B005460C464FF0000902274FF000089C
:101AC0004FF0010B0026B246A88B4FF240010840B0
:101AD000A88302202884B5F81C90A068022801D1B0
:101AE00000BF38E0A08810B94FF0010B01E04FF0C3
:101AF000020B8D48854200D100E000BF6846FFF729
:101B00004EFCDDF800A0E088B0F5007F0AD14FEA76
:101B10001A2000EB80004000A168B0FBF1F0401DEE
:101B200086B20BE04FEA4B10BAFBF0F000EB8000FE
:101B30004000A168B0FBF1F0401D86B20A20B6FB60
:101B4000F0F606F00108A6EB0800C0F34F074FF6C9
:101B5000FF7000EA0828022F01DBFF2F02DD0227B9
:101B60004FF00008E08840EA080038432884A08845
:101B7000A1890843618808432188084340F4006034
:101B800040EA0909A5F81C9005B0BDE8F08F0021D6
:101B9000018041808180C180018141818181C18139
:101BA0000721018270470021018041808180C1802E
:101BB0000221816000218181704721B1028842F0B9
:101BC0004002028004E002884FF6BF731A40028090
:101BD000704721B1828B42F48062828304E0828B61
:101BE0004FF6FF331A408283704730B5002400233C
:101BF0000C110125A540ABB21AB185881D43858023
:101C000002E085889D43858030BD1AB183880B43EF
:101C1000838002E083888B43838070478181704793
:101C20000146888970474FF6FF62914204D00288CE
:101C300042F48072028004E002884FF6FF631A408B
:101C40000280704721B1828842F00402828004E061
:101C500082884FF6FB731A408280704702884FF2E9
:101C6000FF731A40028002880A430280704701888D
:101C700041F480510180704721B1028842F4005242
:101C8000028004E002884DF6FF731A40028070471C
:101C900002460020012901D0108B00E0908A704795
:101CA0000146088A7047B1F5804F04D1028842F49A
:101CB0008042028004E002884BF6FF731A400280E3
:101CC00070470246002013890B400BB1012000E051
:101CD00000207047CA4302817047F0B502460020D9
:101CE00000240023002501F00F070126BE40B4B2F6
:101CF0000B1101269E40B3B2968806EA03051689A9
:101D0000264016B10DB1012000E00020F0BD10B555
:101D1000002201F00F040123A3409AB2D3430381B0
:101D200010BD00000030014000380040003C004081
:101D3000704700000FB4044910B503AA029800F0E0
:101D40008FF910BC5DF814FB1C00002070B5044630
:101D500085690068C10601D5302600E02026C0074D
:101D600007D070BDD4E9012130469047206A401C5D
:101D700020626D1EF6D570BD70B504468569007889
:101D8000C00707D170BDD4E9012120209047206A07
:101D9000401C20626D1EF6D570BD00002DE9F0419B
:101DA0000646002410687529314616A510D0AFF3F9
:101DB0000080002802DA404213A507E031688A0754
:101DC00001D512A502E0490704D511A5012401E0BF
:101DD000AFF3008000210A2206F1240709E0B0FBDE
:101DE000F2FCB0FBF2F302FB1C00303078541846D2
:101DF000491C0028F3D123462A463046BDE8F0416D
:101E000000F0D4B8000000002D0000002B000000FE
:101E10002000000070B504460D4621461068AFF35F
:101E200000802188090502D50F4A7A4402E00E4A53
:101E30007A440E32002104F1240305E000F00F067D
:101E40000009965D5E54491C0028F7D120780023D4
:101E5000000704D5702D02D009B1022311322046AB
:101E6000BDE8704000F0A2B80A0300002DE9F05F61
:101E7000894604464FF0000ADFF824B1FB44C0F85D
:101E800020A02046E168884700287DD0252806D07C
:101E9000D4E901219047206A401C2062F1E7002527
:101EA0005F462046E16888472028064607DB312E3A
:101EB00005D2B81910F8200C08B10543F1E7A807BE
:101EC00001D525F00405C4F81CA00027C4F818A00B
:101ED0002A2E09D0304600F023F938B304EB8708E6
:101EE000303EC8F8186019E059F8041B204604EB8E
:101EF00087029161E1688847012F064618D1E069A1
:101F0000002820DA25F020051DE0D8F8180000EBA5
:101F1000800006EB40003038C8F818002046E16821
:101F20008847064600F0FCF80028EED1012F0AD0C1
:101F30002E2E08D12046E16888477F1C0646022FD6
:101F400045F02005C4DBA069002803DA404245F0D3
:101F50000105A061E80701D025F01005A6B1A6F1A2
:101F60004100192802D8203645F400654A4631461A
:101F7000204625604D46FEF715F960B1012807D0CF
:101F8000ED1D25F0070000E007E000F1080978E703
:101F900005F1040975E730467AE7206ABDE8F09F4D
:101FA000E002000070477047704770472DE9F04726
:101FB0000D4699469246044600F1240801688806B9
:101FC00004D5E06921F01001216000E00120A84261
:101FD00001DD471B00E00027A1697A1902EB090027
:101FE000081AA0612078C00602D42046FFF7AEFE92
:101FF000002608E0D4E901211AF806009047206A7B
:10200000401C761C20624E45F4DB2078C0060AD5C1
:102010002046FFF79BFE06E0D4E9012130209047DF
:10202000206A401C2062381EA7F10107F4DC07E09B
:10203000D4E9012118F805009047206A401C20626D
:10204000281EA5F10105F3DC2046FFF795FE207858
:10205000000602D50220BDE8F0870120FBE7000062
:10206000074B70B50D467B4400F011F80446284636
:1020700000F020F810B14FF0FF3070BD204670BD69
:102080005BECFFFF01694A1C02610878704700B5EC
:102090008FB0CDE901310021059105497944CDE9A1
:1020A000031011466846FFF7E1FE0FB000BD0000C7
:1020B000E5FFFFFF007B00F080007047754600F0F1
:1020C0002BF8AE4605006946534620F007008546CA
:1020D00018B020B5FEF7A2FEBDE820404FF0000684
:1020E0004FF000074FF000084FF0000B21F0070100
:1020F000AC46ACE8C009ACE8C009ACE8C009ACE843
:10210000C0098D46704710B50446AFF300802046E5
:10211000BDE81040FEF75BB80048704700010020A2
:1021200030380A2801D2012070470020704734431C
:10213000101001344310100130313233343536374A
:1021400038394142434445464030580030313233FB
:1021500034353637383961626364656640307800FB
:102160000400000800000000000000020001000060
:10217000100000009421000800000020380000003A
:102180006C010008CC21000838000020280700005E
:102190008801000800A24A040000000000000000BE
:1021A0000102030406070809010000000000000006
:1021B0000000000000000000000001020304010212
:0C21C000030406070809020406080000DA
:0400000508000131BD
:00000001FF
